{
  "contractName": "ItemManager",
  "abi": [
    {
      "anonymous": false,
      "inputs": [
        {
          "indexed": true,
          "internalType": "address",
          "name": "previousOwner",
          "type": "address"
        },
        {
          "indexed": true,
          "internalType": "address",
          "name": "newOwner",
          "type": "address"
        }
      ],
      "name": "OwnershipTransferred",
      "type": "event"
    },
    {
      "anonymous": false,
      "inputs": [
        {
          "indexed": false,
          "internalType": "uint256",
          "name": "_itemIndex",
          "type": "uint256"
        },
        {
          "indexed": false,
          "internalType": "uint256",
          "name": "_step",
          "type": "uint256"
        },
        {
          "indexed": false,
          "internalType": "address",
          "name": "_itemAddress",
          "type": "address"
        }
      ],
      "name": "SupplyChainStep",
      "type": "event"
    },
    {
      "inputs": [
        {
          "internalType": "uint256",
          "name": "",
          "type": "uint256"
        }
      ],
      "name": "items",
      "outputs": [
        {
          "internalType": "contract Item",
          "name": "_item",
          "type": "address"
        },
        {
          "internalType": "string",
          "name": "_identifier",
          "type": "string"
        },
        {
          "internalType": "uint256",
          "name": "_itemPrice",
          "type": "uint256"
        },
        {
          "internalType": "enum ItemManager.SupplyChainState",
          "name": "_state",
          "type": "uint8"
        }
      ],
      "stateMutability": "view",
      "type": "function",
      "constant": true
    },
    {
      "inputs": [],
      "name": "owner",
      "outputs": [
        {
          "internalType": "address",
          "name": "",
          "type": "address"
        }
      ],
      "stateMutability": "view",
      "type": "function",
      "constant": true
    },
    {
      "inputs": [],
      "name": "renounceOwnership",
      "outputs": [],
      "stateMutability": "nonpayable",
      "type": "function"
    },
    {
      "inputs": [
        {
          "internalType": "address",
          "name": "newOwner",
          "type": "address"
        }
      ],
      "name": "transferOwnership",
      "outputs": [],
      "stateMutability": "nonpayable",
      "type": "function"
    },
    {
      "inputs": [
        {
          "internalType": "string",
          "name": "_identifier",
          "type": "string"
        },
        {
          "internalType": "uint256",
          "name": "_itemPrice",
          "type": "uint256"
        }
      ],
      "name": "createItem",
      "outputs": [],
      "stateMutability": "nonpayable",
      "type": "function"
    },
    {
      "inputs": [
        {
          "internalType": "uint256",
          "name": "_itemIndex",
          "type": "uint256"
        }
      ],
      "name": "triggerPayment",
      "outputs": [],
      "stateMutability": "payable",
      "type": "function",
      "payable": true
    },
    {
      "inputs": [
        {
          "internalType": "uint256",
          "name": "_itemIndex",
          "type": "uint256"
        }
      ],
      "name": "triggerDelivery",
      "outputs": [],
      "stateMutability": "nonpayable",
      "type": "function"
    }
  ],
  "bytecode": "0x608060405234801561001057600080fd5b5061002d61002261003260201b60201c565b61003a60201b60201c565b6100fe565b600033905090565b60008060009054906101000a900473ffffffffffffffffffffffffffffffffffffffff169050816000806101000a81548173ffffffffffffffffffffffffffffffffffffffff021916908373ffffffffffffffffffffffffffffffffffffffff1602179055508173ffffffffffffffffffffffffffffffffffffffff168173ffffffffffffffffffffffffffffffffffffffff167f8be0079c531659141344cd1fd0a4f28419497f9722a3daafe3b4186f6b6457e060405160405180910390a35050565b611d528061010d6000396000f3fe6080604052600436106200007a5760003560e01c80638da5cb5b11620000555780638da5cb5b14620000e7578063bfb231d21462000117578063cd31831e146200015e578063f2fde38b146200018c576200007a565b8063715018a6146200007f578063800fb83f14620000995780638c55174214620000b9575b600080fd5b3480156200008c57600080fd5b5062000097620001ba565b005b620000b76004803603810190620000b1919062000eb1565b6200024b565b005b348015620000c657600080fd5b50620000e56004803603810190620000df919062000e57565b620004be565b005b348015620000f457600080fd5b50620000ff6200074b565b6040516200010e91906200100f565b60405180910390f35b3480156200012457600080fd5b506200014360048036038101906200013d919062000eb1565b62000774565b60405162000155949392919062001069565b60405180910390f35b3480156200016b57600080fd5b506200018a600480360381019062000184919062000eb1565b62000861565b005b3480156200019957600080fd5b50620001b86004803603810190620001b2919062000e2b565b62000afd565b005b620001c462000c01565b73ffffffffffffffffffffffffffffffffffffffff16620001e46200074b565b73ffffffffffffffffffffffffffffffffffffffff16146200023d576040517f08c379a0000000000000000000000000000000000000000000000000000000008152600401620002349062001101565b60405180910390fd5b62000249600062000c09565b565b34600160008381526020019081526020016000206002015414620002a6576040517f08c379a00000000000000000000000000000000000000000000000000000000081526004016200029d90620010df565b60405180910390fd5b60006002811115620002e1577f4e487b7100000000000000000000000000000000000000000000000000000000600052602160045260246000fd5b6001600083815260200190815260200160002060030160009054906101000a900460ff1660028111156200033e577f4e487b7100000000000000000000000000000000000000000000000000000000600052602160045260246000fd5b1462000381576040517f08c379a0000000000000000000000000000000000000000000000000000000008152600401620003789062001123565b60405180910390fd5b600180600083815260200190815260200160002060030160006101000a81548160ff02191690836002811115620003e1577f4e487b7100000000000000000000000000000000000000000000000000000000600052602160045260246000fd5b02179055507fa4035636e99f06b7651a604c1019fa4e8779fe68ef27eeb74dff2de348f6199b60025460016000600254815260200190815260200160002060030160009054906101000a900460ff16600281111562000469577f4e487b7100000000000000000000000000000000000000000000000000000000600052602160045260246000fd5b60016000600254815260200190815260200160002060000160009054906101000a900473ffffffffffffffffffffffffffffffffffffffff16604051620004b39392919062001145565b60405180910390a150565b620004c862000c01565b73ffffffffffffffffffffffffffffffffffffffff16620004e86200074b565b73ffffffffffffffffffffffffffffffffffffffff161462000541576040517f08c379a0000000000000000000000000000000000000000000000000000000008152600401620005389062001101565b60405180910390fd5b60003082600254604051620005569062000ccd565b62000564939291906200102c565b604051809103906000f08015801562000581573d6000803e3d6000fd5b5090508060016000600254815260200190815260200160002060000160006101000a81548173ffffffffffffffffffffffffffffffffffffffff021916908373ffffffffffffffffffffffffffffffffffffffff1602179055508260016000600254815260200190815260200160002060010190805190602001906200060992919062000cdb565b508160016000600254815260200190815260200160002060020181905550600060016000600254815260200190815260200160002060030160006101000a81548160ff021916908360028111156200068a577f4e487b7100000000000000000000000000000000000000000000000000000000600052602160045260246000fd5b02179055507fa4035636e99f06b7651a604c1019fa4e8779fe68ef27eeb74dff2de348f6199b60025460016000600254815260200190815260200160002060030160009054906101000a900460ff16600281111562000712577f4e487b7100000000000000000000000000000000000000000000000000000000600052602160045260246000fd5b83604051620007249392919062001145565b60405180910390a160026000815480929190620007419062001365565b9190505550505050565b60008060009054906101000a900473ffffffffffffffffffffffffffffffffffffffff16905090565b60016020528060005260406000206000915090508060000160009054906101000a900473ffffffffffffffffffffffffffffffffffffffff1690806001018054620007bf90620012f9565b80601f0160208091040260200160405190810160405280929190818152602001828054620007ed90620012f9565b80156200083e5780601f1062000812576101008083540402835291602001916200083e565b820191906000526020600020905b8154815290600101906020018083116200082057829003601f168201915b5050505050908060020154908060030160009054906101000a900460ff16905084565b6200086b62000c01565b73ffffffffffffffffffffffffffffffffffffffff166200088b6200074b565b73ffffffffffffffffffffffffffffffffffffffff1614620008e4576040517f08c379a0000000000000000000000000000000000000000000000000000000008152600401620008db9062001101565b60405180910390fd5b600160028111156200091f577f4e487b7100000000000000000000000000000000000000000000000000000000600052602160045260246000fd5b6001600083815260200190815260200160002060030160009054906101000a900460ff1660028111156200097c577f4e487b7100000000000000000000000000000000000000000000000000000000600052602160045260246000fd5b14620009bf576040517f08c379a0000000000000000000000000000000000000000000000000000000008152600401620009b69062001123565b60405180910390fd5b60026001600083815260200190815260200160002060030160006101000a81548160ff0219169083600281111562000a20577f4e487b7100000000000000000000000000000000000000000000000000000000600052602160045260246000fd5b02179055507fa4035636e99f06b7651a604c1019fa4e8779fe68ef27eeb74dff2de348f6199b60025460016000600254815260200190815260200160002060030160009054906101000a900460ff16600281111562000aa8577f4e487b7100000000000000000000000000000000000000000000000000000000600052602160045260246000fd5b60016000600254815260200190815260200160002060000160009054906101000a900473ffffffffffffffffffffffffffffffffffffffff1660405162000af29392919062001145565b60405180910390a150565b62000b0762000c01565b73ffffffffffffffffffffffffffffffffffffffff1662000b276200074b565b73ffffffffffffffffffffffffffffffffffffffff161462000b80576040517f08c379a000000000000000000000000000000000000000000000000000000000815260040162000b779062001101565b60405180910390fd5b600073ffffffffffffffffffffffffffffffffffffffff168173ffffffffffffffffffffffffffffffffffffffff16141562000bf3576040517f08c379a000000000000000000000000000000000000000000000000000000000815260040162000bea90620010bd565b60405180910390fd5b62000bfe8162000c09565b50565b600033905090565b60008060009054906101000a900473ffffffffffffffffffffffffffffffffffffffff169050816000806101000a81548173ffffffffffffffffffffffffffffffffffffffff021916908373ffffffffffffffffffffffffffffffffffffffff1602179055508173ffffffffffffffffffffffffffffffffffffffff168173ffffffffffffffffffffffffffffffffffffffff167f8be0079c531659141344cd1fd0a4f28419497f9722a3daafe3b4186f6b6457e060405160405180910390a35050565b61076180620015bc83390190565b82805462000ce990620012f9565b90600052602060002090601f01602090048101928262000d0d576000855562000d59565b82601f1062000d2857805160ff191683800117855562000d59565b8280016001018555821562000d59579182015b8281111562000d5857825182559160200191906001019062000d3b565b5b50905062000d68919062000d6c565b5090565b5b8082111562000d8757600081600090555060010162000d6d565b5090565b600062000da262000d9c84620011ab565b62001182565b90508281526020810184848401111562000dbb57600080fd5b62000dc8848285620012b4565b509392505050565b60008135905062000de18162001587565b92915050565b600082601f83011262000df957600080fd5b813562000e0b84826020860162000d8b565b91505092915050565b60008135905062000e2581620015a1565b92915050565b60006020828403121562000e3e57600080fd5b600062000e4e8482850162000dd0565b91505092915050565b6000806040838503121562000e6b57600080fd5b600083013567ffffffffffffffff81111562000e8657600080fd5b62000e948582860162000de7565b925050602062000ea78582860162000e14565b9150509250929050565b60006020828403121562000ec457600080fd5b600062000ed48482850162000e14565b91505092915050565b62000ee881620011fd565b82525050565b62000ef98162001250565b82525050565b62000f0a8162001278565b82525050565b62000f1b81620012a0565b82525050565b600062000f2e82620011e1565b62000f3a8185620011ec565b935062000f4c818560208601620012c3565b62000f57816200146f565b840191505092915050565b600062000f71602683620011ec565b915062000f7e8262001480565b604082019050919050565b600062000f98601a83620011ec565b915062000fa582620014cf565b602082019050919050565b600062000fbf602083620011ec565b915062000fcc82620014f8565b602082019050919050565b600062000fe6602a83620011ec565b915062000ff38262001521565b604082019050919050565b620010098162001246565b82525050565b600060208201905062001026600083018462000edd565b92915050565b600060608201905062001043600083018662000eee565b62001052602083018562000ffe565b62001061604083018462000ffe565b949350505050565b600060808201905062001080600083018762000eff565b818103602083015262001094818662000f21565b9050620010a5604083018562000ffe565b620010b4606083018462000f10565b95945050505050565b60006020820190508181036000830152620010d88162000f62565b9050919050565b60006020820190508181036000830152620010fa8162000f89565b9050919050565b600060208201905081810360008301526200111c8162000fb0565b9050919050565b600060208201905081810360008301526200113e8162000fd7565b9050919050565b60006060820190506200115c600083018662000ffe565b6200116b602083018562000ffe565b6200117a604083018462000edd565b949350505050565b60006200118e620011a1565b90506200119c82826200132f565b919050565b6000604051905090565b600067ffffffffffffffff821115620011c957620011c862001440565b5b620011d4826200146f565b9050602081019050919050565b600081519050919050565b600082825260208201905092915050565b60006200120a8262001226565b9050919050565b6000819050620012218262001570565b919050565b600073ffffffffffffffffffffffffffffffffffffffff82169050919050565b6000819050919050565b60006200125d8262001264565b9050919050565b6000620012718262001226565b9050919050565b600062001285826200128c565b9050919050565b6000620012998262001226565b9050919050565b6000620012ad8262001211565b9050919050565b82818337600083830152505050565b60005b83811015620012e3578082015181840152602081019050620012c6565b83811115620012f3576000848401525b50505050565b600060028204905060018216806200131257607f821691505b6020821081141562001329576200132862001411565b5b50919050565b6200133a826200146f565b810181811067ffffffffffffffff821117156200135c576200135b62001440565b5b80604052505050565b6000620013728262001246565b91507fffffffffffffffffffffffffffffffffffffffffffffffffffffffffffffffff821415620013a857620013a7620013b3565b5b600182019050919050565b7f4e487b7100000000000000000000000000000000000000000000000000000000600052601160045260246000fd5b7f4e487b7100000000000000000000000000000000000000000000000000000000600052602160045260246000fd5b7f4e487b7100000000000000000000000000000000000000000000000000000000600052602260045260246000fd5b7f4e487b7100000000000000000000000000000000000000000000000000000000600052604160045260246000fd5b6000601f19601f8301169050919050565b7f4f776e61626c653a206e6577206f776e657220697320746865207a65726f206160008201527f6464726573730000000000000000000000000000000000000000000000000000602082015250565b7f46756c6c79207061796d656e7473206f6e6c792c20666f6f6c21000000000000600082015250565b7f4f776e61626c653a2063616c6c6572206973206e6f7420746865206f776e6572600082015250565b7f4974206973206675727468657220646f776e20696e2074686520636861696e2c60008201527f2074727920616761696e00000000000000000000000000000000000000000000602082015250565b60038110620015845762001583620013e2565b5b50565b6200159281620011fd565b81146200159e57600080fd5b50565b620015ac8162001246565b8114620015b857600080fd5b5056fe608060405234801561001057600080fd5b50604051610761380380610761833981810160405281019061003291906100b3565b82600360006101000a81548173ffffffffffffffffffffffffffffffffffffffff021916908373ffffffffffffffffffffffffffffffffffffffff160217905550816000819055508060028190555050505061017e565b60008151905061009881610150565b92915050565b6000815190506100ad81610167565b92915050565b6000806000606084860312156100c857600080fd5b60006100d686828701610089565b93505060206100e78682870161009e565b92505060406100f88682870161009e565b9150509250925092565b600061010d82610126565b9050919050565b600061011f82610102565b9050919050565b600073ffffffffffffffffffffffffffffffffffffffff82169050919050565b6000819050919050565b61015981610114565b811461016457600080fd5b50565b61017081610146565b811461017b57600080fd5b50565b6105d48061018d6000396000f3fe6080604052600436106100385760003560e01c80632986c0e5146102465780633c8da5881461027157806383d12eef1461029c57610241565b36610241576000543414610081576040517f08c379a0000000000000000000000000000000000000000000000000000000008152600401610078906103d9565b60405180910390fd5b6000600154146100c6576040517f08c379a00000000000000000000000000000000000000000000000000000000081526004016100bd90610399565b60405180910390fd5b34600160008282546100d8919061043b565b925050819055506000600360009054906101000a900473ffffffffffffffffffffffffffffffffffffffff1673ffffffffffffffffffffffffffffffffffffffff163460025460405160240161012e91906103f9565b6040516020818303038152906040527f800fb83f000000000000000000000000000000000000000000000000000000007bffffffffffffffffffffffffffffffffffffffffffffffffffffffff19166020820180517bffffffffffffffffffffffffffffffffffffffffffffffffffffffff83818316178352505050506040516101b89190610382565b60006040518083038185875af1925050503d80600081146101f5576040519150601f19603f3d011682016040523d82523d6000602084013e6101fa565b606091505b505090508061023e576040517f08c379a0000000000000000000000000000000000000000000000000000000008152600401610235906103b9565b60405180910390fd5b50005b600080fd5b34801561025257600080fd5b5061025b6102c7565b60405161026891906103f9565b60405180910390f35b34801561027d57600080fd5b506102866102cd565b60405161029391906103f9565b60405180910390f35b3480156102a857600080fd5b506102b16102d3565b6040516102be91906103f9565b60405180910390f35b60025481565b60005481565b60015481565b60006102e482610414565b6102ee818561041f565b93506102fe81856020860161049b565b80840191505092915050565b600061031760158361042a565b9150610322826104fd565b602082019050919050565b600061033a602d8361042a565b915061034582610526565b604082019050919050565b600061035d60138361042a565b915061036882610575565b602082019050919050565b61037c81610491565b82525050565b600061038e82846102d9565b915081905092915050565b600060208201905081810360008301526103b28161030a565b9050919050565b600060208201905081810360008301526103d28161032d565b9050919050565b600060208201905081810360008301526103f281610350565b9050919050565b600060208201905061040e6000830184610373565b92915050565b600081519050919050565b600081905092915050565b600082825260208201905092915050565b600061044682610491565b915061045183610491565b9250827fffffffffffffffffffffffffffffffffffffffffffffffffffffffffffffffff03821115610486576104856104ce565b5b828201905092915050565b6000819050919050565b60005b838110156104b957808201518184015260208101905061049e565b838111156104c8576000848401525b50505050565b7f4e487b7100000000000000000000000000000000000000000000000000000000600052601160045260246000fd5b7f4974656d20697320616c72656164792070616964210000000000000000000000600082015250565b7f536869742069732062726f6b656e2120497420646964206e6f742064656c697660008201527f65722c20636f72726563746c7900000000000000000000000000000000000000602082015250565b7f4e6f207061727469616c207061796d656e74730000000000000000000000000060008201525056fea2646970667358221220d16eaf9d475c7916e408331681dd21d03703477ec714c5c9591f3647aaa7260164736f6c63430008010033a2646970667358221220965bf430b7df43567e2ba5250e1f9ac67ec55ee5d56a4dde851d3340ce608b5464736f6c63430008010033",
  "immutableReferences": {},
  "source": "pragma solidity ^0.8.1;\r\n\r\nimport \"./Ownable.sol\";\r\nimport './Item.sol';\r\n\r\n/**\r\n * The first thing we need is a \"Management\" Smart Contract, where we can add items\r\n */\r\ncontract ItemManager is Ownable {\r\n    //******** DATA STRUCTS ********\r\n    enum SupplyChainState{ Created, Paid, Delivered }\r\n\r\n    struct SupplyItem {\r\n        Item _item;\r\n        string _identifier;\r\n        uint _itemPrice;\r\n        ItemManager.SupplyChainState _state;\r\n    }\r\n\r\n    //******** STORAGE VARIABLES ********\r\n    mapping( uint => SupplyItem ) public items;\r\n\r\n    uint itemIndex;\r\n\r\n    //******** EVENTS ********\r\n    event SupplyChainStep( uint _itemIndex, uint _step, address _itemAddress );\r\n\r\n    //******** MODIFIERS ********\r\n\r\n\r\n    //******** FUNCTIONS ********\r\n    function createItem( string memory _identifier, uint _itemPrice ) public onlyOwner {\r\n        Item item = new Item(this, _itemPrice, itemIndex);\r\n\r\n        items[itemIndex]._item = item;\r\n        items[itemIndex]._identifier = _identifier;\r\n        items[itemIndex]._itemPrice = _itemPrice;\r\n        items[itemIndex]._state = SupplyChainState.Created;\r\n\r\n        emit SupplyChainStep( itemIndex, uint(items[itemIndex]._state), address(item) );\r\n\r\n        itemIndex++;\r\n    }\r\n\r\n    function triggerPayment( uint _itemIndex ) public payable {\r\n        require( items[_itemIndex]._itemPrice == msg.value, \"Fully payments only, fool!\" );\r\n        require( items[_itemIndex]._state == SupplyChainState.Created, \"It is further down in the chain, try again\" );\r\n        \r\n        items[_itemIndex]._state = SupplyChainState.Paid;\r\n\r\n        emit SupplyChainStep( itemIndex, uint(items[itemIndex]._state), address(items[itemIndex]._item) );\r\n    }\r\n\r\n    function triggerDelivery( uint _itemIndex ) public onlyOwner {\r\n        require( items[_itemIndex]._state == SupplyChainState.Paid, \"It is further down in the chain, try again\" );\r\n\r\n        items[_itemIndex]._state = SupplyChainState.Delivered;\r\n\r\n        emit SupplyChainStep( itemIndex, uint(items[itemIndex]._state), address(items[itemIndex]._item) );\r\n    }\r\n}",
  "sourcePath": "C:\\Users\\bearn\\Documents\\Solidity-SupplyChain\\truffleFun\\contracts\\ItemManager.sol",
  "compiler": {
    "name": "solc",
    "version": "0.8.1+commit.df193b15.Emscripten.clang"
  },
  "schemaVersion": "3.4.3",
  "updatedAt": "2021-11-30T00:40:24.961Z",
  "networkType": "ethereum",
  "devdoc": {
    "kind": "dev",
    "methods": {
      "owner()": {
        "details": "Returns the address of the current owner."
      },
      "renounceOwnership()": {
        "details": "Leaves the contract without owner. It will not be possible to call `onlyOwner` functions anymore. Can only be called by the current owner. NOTE: Renouncing ownership will leave the contract without an owner, thereby removing any functionality that is only available to the owner."
      },
      "transferOwnership(address)": {
        "details": "Transfers ownership of the contract to a new account (`newOwner`). Can only be called by the current owner."
      }
    },
    "version": 1
  },
  "userdoc": {
    "kind": "user",
    "methods": {},
    "notice": "The first thing we need is a \"Management\" Smart Contract, where we can add items",
    "version": 1
  }
}